:0A0000000C94ED000C945C010C94CC
:10000A0000000C9400000C9427010C9400000C943E
:10001A0000000C945B010C9400000C9400000C94FA
:10002A0000000C9400000C9400000C9400000C9446
:10003A0000000C9400000C9400000C9400000C9436
:10004A0000000C9400000C9400001027E8036400E0
:10005A000A0001000010000110000100000077777B
:10006A0077787878797A7A7B7C7D7E7F80828384C0
:10007A008687898A8C8E8F91939597999B9C9EA04F
:10008A00A2A4A6A7A9ABADAEB0B1B2B4B5B6B7B883
:10009A00B8B8B7B5B4B3B1AFADACAAA8A6A4A2A07C
:1000AA009E9B99979593918F8D8C8A888785848258
:1000BA0081807F7D7C7C7B7A79797878787777788C
:1000CA0078786B6D6F71737577787A7C7E808284AD
:1000DA0086888A8C8E8F91939597999B9D9FA1A3D1
:1000EA00A5A7A9ABADB0B2B4B6B8BABCBEC0C2C5BA
:1000FA00C7C9CBCCC9C7C4C2BFBDBAB8B6B3B1AE03
:10010A00ACAAA7A5A3A19F9C9A98969492908E8C2C
:10011A008A88868482807E7C7A78767573716F6D20
:10012A006C6D6F717374434133303833204F4B20F9
:10013A00202020004341333038332052656A6563FA
:10014A007400434434303037204F4B2020202000A5
:10015A004344343030372052656A6563740058521C
:10016A0038303338204F4B20202020005852383066
:10017A0033382052656A656374004344343031373A
:10018A00204F4B2020202000434434303137205266
:10019A00656A6563740080C001002D4E414E0049B6
:1001AA004E46000002000800660064007C026800F7
:1001BA006400E002CC000E00600284010E006E02B0
:1001CA00920102009C05A0010100A005A201000005
:1001DA00F894EE27ECBBF1E0F5BFE5BF8DE0A2E0B5
:1001EA00BB27ED938A95E9F780E098E0A0E6ED93C6
:1001FA000197E9F7EEEAF1E085919591009761F0B0
:10020A00A591B59105901590BF01F00105900D9249
:10021A000197E1F7FB01F0CFEFE5EDBFE8E0EEBFB4
:10022A00C0E6D2E00C94AB03AA93E881E066E7B992
:10023A0088E28A95F1F7369A349BFECF349AE5B173
:10024A000C9496040A921A92FA926A937A938A936F
:10025A009A93AA93BA93EA93FA93EFB7EA93F301BC
:10026A00EC5BFC4FFF93EF93A52DDEDFAF91BF91BF
:10027A00EC93F30131963F01E8E5F2E0E615F70564
:10028A0039F466247724E5B5EC7FE5BD8824992402
:10029A00E991EFBFF991E991B991A9919991899160
:1002AA0079916991F9901990099018951895AA93DE
:1002BA00EA93FA93EFB7EA934394E4E0E41509F476
:1002CA004424E42DF0E0309729F4DF9ADE98DD9893
:1002DA00DC981AC0E130A0E0FA0729F4DF98DE9A28
:1002EA00DD98DC9811C0E230A0E0FA0729F4DF9823
:1002FA00DE98DD9ADC9808C0E330A0E0FA0721F422
:10030A00DF98DE98DD98DC9AE991EFBFF991E991DF
:10031A00A9911895BA93AA930E94610520E030E04A
:10032A0000E010E00036E0E01E07C4F4F801AE81F8
:10033A00BF81AE0FBF1FAC91BB27EC81FD81E00FDF
:10034A00F11FEC5BFC4FE081F0E0AE1BBF0B0E949B
:10035A0098042E0F3F1F0F5F1F4FE4CFF9010E9431
:10036A006805289608950E945F051FEF20E030E097
:10037A002839E1E03E0784F4A4E4B3E0A20FB31FF6
:10038A00AC91A11730F4A4E4B3E0A20FB31F1C91FF
:10039A00A9012F5F3F4FECCFFA010E94660526960E
:1003AA0008950E94A204C59A0E94A904B49903C0A0
:1003BA0001E010E002C000E010E0C5980E94A90424
:1003CA00B49B03C021E030E002C020E030E00E948C
:1003DA00AD0429F4E1E0F0E0E217F30709F003C005
:1003EA00A0E3B1E002C0AEE3B1E00E94560426C029
:1003FA000E94A204C69A0E94A904B79903C001E008
:10040A0010E002C000E010E0C6980E94A904B79B61
:10041A0003C021E030E002C020E030E00E94AD04D9
:10042A0029F4E1E0F0E0E217F30709F003C0ACE4D5
:10043A00B1E002C0AAE5B1E00E9456040E94680534
:10044A00249608952497E0E0E883E983EA83EB831E
:10045A000E945F05E1E00E94B704E1E0F0E0E815E0
:10046A00F905D9F380DF9F01ECE7F2E00E94BF04AF
:10047A004C3DE5E05E072CF4E1E0F0E0E887F9871F
:10048A0003C0E0E0E887E987E2E00E94B704E1E020
:10049A00F0E0E815F905D9F366DF9F01E0EEF2E036
:1004AA000E94BF04403DE7E05E072CF4E1E0F0E083
:1004BA00EE83FF8303C0E0E0EE83EF83E0E0EA939C
:1004CA00A0E00E941904A885B985119721F4AE818C
:1004DA00BF81119709F003C0A8E6B1E002C0A6E700
:1004EA00B1E00E9456040E9466052A960895A397D1
:1004FA000E945F0540E050E0C09A0E94C604C0987E
:10050A00DB98C1980E94C60400E010E00431E0E0E4
:10051A001E070CF0E4C0C19B02C0C19801C0C19A79
:10052A000E94C604F801E130A0E0FA0769F4A0E0ED
:10053A009D9BA1E0E0E09E99E1E00E94CA040E942E
:10054A00D204EB8BFC8BC8C0E330A0E0FA0771F44D
:10055A000E94F604EA23AE2FE0E09C99E1E0EA2348
:10056A00AE2F0E94D204ED8BFE8BB6C0E530A0E020
:10057A00FA0771F40E94F6040E94CA04E0E099990D
:10058A00E1E00E94FD040E940505EF8BF88FA4C0EC
:10059A00E730A0E0FA0799F40E94F6040E94CA0420
:1005AA00E0E0999BE1E0EA23AE2FE0E0B399E1E0D5
:1005BA00EA23AE2F0E940505E98FFA8F8DC0E93034
:1005CA00A0E0FA0781F40E94F6040E94CA040E947D
:1005DA001F05E0E09F99E1E00E9423050E942B0598
:1005EA00EB8FFC8F79C0EB30A0E0FA07A9F40E94E8
:1005FA00F6040E94CA040E941F05E0E09F9BE1E006
:10060A00EA23AE2FE0E09B99E1E0EA23AE2F0E94B5
:10061A002B05ED8FFE8F60C0ED30A0E0FA07A9F43C
:10062A000E94F6040E94CA040E941F050E943B050C
:10063A00E0E09A99E1E00E943F05E0E0B29BE1E048
:10064A00EA23F0E0EF8FF8A347C0EF30A0E0FA0703
:10065A00D1F40E94F6040E94CA040E941F050E9457
:10066A003B05E0E09A9BE1E0EA23AE2FE0E09899AF
:10067A00E1E0EA23AE2FE0E0B29BE1E0EA23F0E01A
:10068A00E9A3FAA329C0E131A0E0FA07A9F40E947C
:10069A00F6040E94CA040E941F050E943B05E0E07E
:1006AA009A9BE1E00E943F05E0E0B299E1E0EA238B
:1006BA00F0E0EBA3FCA310C0E331A0E0FA0761F479
:1006CA00A0E09D99A1E0E0E09E9BE1E00E94CA04BF
:1006DA000E94D204EDA3FEA30F5F1F4F17CFE0E0E5
:1006EA00EA93A0E0A1D0AB89BC89119721F5AD8925
:1006FA00BE89119701F5AF89B88D1197E1F4A98DDB
:10070A00BA8D1197C1F4AB8DBC8D1197A1F4AD8D43
:10071A00BE8D119781F4AF8DB8A1119761F4A9A18B
:10072A00BAA1119741F4ABA1BCA1119721F4ADA1D3
:10073A00BEA1119709F003C0A0E6B2E002C0AEE67E
:10074A00B2E0A0D00E946605A9960895E8EFEABB38
:10075A00E0E8EBBBE3E6E7BB4424C198A0E1B4D0F0
:10076A00E0E0E2BDEBE0E5BDE0E0E4BDEBEBE3BDDC
:10077A00E0E8E9BFE0E6E7B9E6E8E6B9E0E0E0BFCD
:10078A00EBB7E064EBBFE2E0E5BFE0E0E4BFE0E442
:10079A00EABF7894E42DF0E0E330A0E0FA0711F420
:1007AA0051DE0FC0E230A0E0FA0711F421DE09C0E1
:1007BA00E130A0E0FA0711F4F4DD03C0309709F440
:1007CA0096DEE8CFFFCFAA93E881E07111F0949A00
:1007DA0001C09498E881E07211F0939A01C093984D
:1007EA00E881E07411F0919A01C09198E881E0786B
:1007FA0011F0909A01C0909884E18A95F1F7959A40
:10080A0084E18A95F1F7959884E18A95F1F789C090
:10081A00AA93A881D8DFE881E295E883A881D3DF8B
:10082A0088EC8A95F1F77DC0AA93E881F0E0E45656
:10083A00FA4FE081A981AE0FEBDFB980A88022963A
:10084A000895A2E00E944705ACE0E2DFA1E00E9421
:10085A004705E0E0AE2EBE2E0895AA93A881AA30DD
:10086A0011F0BD1448F0E0E0EA93A394AA2DDCDF6E
:10087A00A881AA3009F455C0B394979AA881C8DF11
:10088A0097984FC0BA93AA931A93A981BA81ED9106
:10089A00A983BA831E2FE03019F0A12FDEDFF5CF2E
:1008AA0010C0BA93AA931A93E981FA813196E9831F
:1008BA00FA833197E4911E2FE03019F0A12FCDDF92
:1008CA00F3CF188123960895AA938C9A8B9A899AC2
:1008DA00889A8D9A8F9A8E9A959897989698D88092
:1008EA00E881E058E0939E05E881E054E0939F0593
:1008FA00A4E1B0E00E9455050E944D050E944D05F5
:10090A000E944D05A0E25FDF8CE291E00197F1F7CA
:10091A00A8E27EDFA4E07CDFA5E87ADFA6E078DF44
:10092A0090DF21960895BA93AA93E991F9913097A5
:10093A001AF4E095F095319608950E94610500E059
:10094A0010E020E030E00895A2E3B0E00C945505F1
:10095A00E0E0EA93A0E00E941904E1E0F0E0E01789
:10096A00F10708955E2EE5B5E360E5BDE1E0F0E04C
:10097A004F010895FA93EA93D9010E948F01AF01BA
:10098A000895AAE0B0E00C945505EA23AE2FE0E002
:10099A009C9BE1E0EA23AE2F0895E0E0999BE1E019
:1009AA00EA23AE2FE0E0B39BE1E0EA23AE2FE0E0DA
:1009BA009F9BE1E0EA23AE2FE0E09B9BE1E0EA2384
:1009CA00AE2FE0E09A9BE1E0EA23AE2FE0E0989BAD
:1009DA00E1E0EA23AE2FE0E0B29BE1E0EA23F0E0B7
:1009EA000895A0E09D9BA1E0E0E09E9BE1E00895D0
:1009FA00EA23AE2FE0E0B39BE1E0EA23AE2F0895AD
:100A0A00E0E09F9BE1E0EA23AE2FE0E09B9BE1E080
:100A1A00EA23AE2FE0E09A9BE1E0EA23AE2FE0E082
:100A2A00989BE1E0EA23AE2FE0E0B29BE1E0EA2303
:100A3A00F0E00895E0E0999BE1E0DACFEA23AE2FF7
:100A4A00E0E09B9BE1E0EA23AE2F0895E0E09A9B69
:100A5A00E1E0EA23AE2FE0E0989BE1E0EA23AE2F43
:100A6A00E0E0B29BE1E0EA23F0E00895E0E09F9B3A
:100A7A00E1E0E4CFEA23AE2FE0E0989BE1E0EA234D
:100A8A00AE2F08950E940D04A3E0B0E00C94550522
:100A9A00A0E30E94E8038CE291E00197F1F7089540
:100AAA00109639F088EB9BE00197F1F7A89511971A
:100ABA00C9F708955A934A933A932A931A930A9331
:100ACA0008955D814C813B812A81198108810895AD
:00000001FF
